:100000000C942A000C9447000C9447000C94470071
:100010000C9447000C9447000C9447000C94470044
:100020000C9447000C9447000C9447000C94470034
:100030000C9447000C9447000C9447000C94470024
:100040000C9447000C9447000C9447000C94470014
:100050000C94470011241FBECFE5D8E0DEBFCDBF12
:1000600010E0A0E6B0E0E0E0F7E002C005900D92FD
:10007000A037B107D9F720E0A0E7B0E001C01D929A
:10008000A837B207E1F70E944D030C947E030C944D
:100090000000BC0180E030E0FB01E30FF11D408176
:1000A000442359F0982F990F292F220F220F920FD6
:1000B0009053842F890F3F5FEFCF0895EF92FF9207
:1000C0000F931F93CF93DF9300D000D0CDB7DEB74F
:1000D0007B015A8349833C832B8396ED980F9230A2
:1000E00020F0982F9D7F9D3249F4EA94EF2891F5F6
:1000F00092E090930100F801808314C08D33A9F43D
:100100000E94F10283E0F7018083CE0101960E94F4
:100110004900CE0103960E94490065E081E00E94FB
:10012000390380E00E94F10215C0FB0190819330F9
:1001300011F491E09083F7019081913031F0923089
:1001400049F4682FCE01039603C0682FCE010196B3
:100150000E9474030F900F900F900F90DF91CF913A
:100160001F910F91FF90EF900895442379F1413052
:1001700009F05FC0813079F028F08230A9F0833037
:10018000E1F008952AB381E090E001C0880F6A95FC
:10019000EAF7822B2CC027B381E090E001C0880FE2
:1001A0006A95EAF7822B2EC024B381E090E001C06B
:1001B000880F6A95EAF7822B30C021B381E090E086
:1001C00001C0880F6A95EAF7822B32C0813089F02E
:1001D00028F08230C9F0833011F108952AB381E00C
:1001E00090E001C0880F6A95EAF7809582238ABB68
:1001F000089527B381E090E001C0880F6A95EAF77F
:100200008095822387BB089524B381E090E001C0EC
:10021000880F6A95EAF78095822384BB089521B3FD
:1002200081E090E001C0880F6A95EAF7809582230B
:1002300081BB0895442379F1413009F05FC08130DA
:1002400079F028F08230A9F08330E1F008952BB3E3
:1002500081E090E001C0880F6A95EAF7822B2CC0FC
:1002600028B381E090E001C0880F6A95EAF7822BFD
:100270002EC025B381E090E001C0880F6A95EAF7AF
:10028000822B30C022B381E090E001C0880F6A95D4
:10029000EAF7822B32C0813089F028F08230C9F031
:1002A000833011F108952BB381E090E001C0880FF5
:1002B0006A95EAF7809582238BBB089528B381E085
:1002C00090E001C0880F6A95EAF78095822388BB89
:1002D000089525B381E090E001C0880F6A95EAF7A0
:1002E0008095822385BB089522B381E090E001C010
:1002F000880F6A95EAF78095822382BB0895FA01F8
:10030000813041F028F0823039F0833039F008959F
:1003100089B305C086B303C083B301C080B390E046
:1003200002C0959587956A95E2F78170808308955C
:10033000813081F028F08230B9F08330F9F00895EF
:100340002BB381E090E001C0880F6A95EAF7822B19
:100350008BBB089528B381E090E001C0880F6A95B7
:10036000EAF7822B88BB089525B381E090E001C0B5
:10037000880F6A95EAF7822B85BB089522B381E046
:1003800090E001C0880F6A95EAF7822B82BB08953E
:1003900041E060E083E00E94B50041E061E083E07D
:1003A0000E94B50041E062E083E00E94B50041E0B8
:1003B00063E083E00E94B50040E064E083E00E94D7
:1003C000B50040E065E083E00E94B50040E066E0F3
:1003D00083E00E94B50040E067E083E00E94B50042
:1003E00064E083E00E94980165E083E00E94980148
:1003F00066E083E00E94980167E083E00E94980134
:1004000041E060E083E00E941A0141E061E083E0A6
:100410000E941A0141E062E083E00E941A0141E07B
:1004200063E083E00C941A01BF92CF92DF92EF92C7
:10043000FF920F931F93CF93DF931F92CDB7DEB739
:10044000198280E6E82E80E0F82EB12C10E040E022
:10045000612F83E00E941A01670104E0AE014F5F43
:100460005F4F602F83E00E947F018981811113C05B
:10047000F601B0808981811108C0AE014F5F5F4FE6
:10048000602F83E00E947F01F5CF8FE39CE9019705
:10049000F1F700C000000F5F94E0C90ED11C0830D6
:1004A000E9F641E0612F83E00E941A011F5FEFEF40
:1004B000EE1AFE0A143059F68B2D0F90DF91CF9172
:1004C0001F910F91FF90EF90DF90CF90BF90089514
:1004D000CF93C82F40E061E081E00E941A0140E024
:1004E00062E081E00E941A0140E063E081E00E9446
:1004F0001A018BB39C2F907F8F70892B8BBB41E0AF
:1005000063E081E00E941A018FE99FE00197F1F713
:1005100000C0000040E063E081E00E941A012BB3BC
:1005200030E1C39FC0011124922F9F70892B8BBB98
:1005300041E063E081E00E941A018FE99FE00197AA
:10054000F1F700C0000040E063E081E00E941A0182
:100550008FE19EE40197F1F700C00000CF9108956C
:1005600041E061E081E00E94B50041E062E081E0AD
:100570000E94B50041E063E081E00E94B50041E0E7
:1005800064E080E00E94B50041E065E080E00E9408
:10059000B50041E066E080E00E94B50041E067E020
:1005A00080E00E94B5002FEF81EE94E02150804062
:1005B0009040E1F700C0000083E30E94680282E3FC
:1005C0000E94680288E20E9468028CE00E94680231
:1005D00081E00E94680286E00E94680282E00C943A
:1005E0006802CF93C82F41E061E081E00E941A01C8
:1005F00040E062E081E00E941A0140E063E081E0B7
:100600000E941A018BB39C2F907F8F70892B8BBB1C
:1006100041E063E081E00E941A018FE99FE00197C9
:10062000F1F700C0000040E063E081E00E941A01A1
:100630002BB330E1C39FC0011124922F9F70892BEF
:100640008BBB41E063E081E00E941A018FE99FE0EB
:100650000197F1F700C0000040E063E081E00E94F4
:100660001A018FE19EE40197F1F700C00000CF91DD
:100670000895CF93DF9300D0CDB7DEB790E899838C
:1006800090EC9A83FE01E80FF11D8181860F0F9097
:100690000F90DF91CF910C946802CF93DF9300D03D
:1006A000CDB7DEB781E08A8384E790E00E947003D3
:1006B00080E790E00E94700319820E94B0020E94BD
:1006C000C8010E9414028E010F5F1F4F20E730E027
:1006D00044E750E0BE016E5F7F4F0E945E00F1CFA5
:1006E0002FEFFC0123830895FC012381223028F49D
:1006F0002F5F2383E20FF11D60830895F894FFCFED
:100700003738392F3435362A3132332D63303D2B8B
:00000001FF
