:100000000C942A000C9447000C9447000C94470071
:100010000C9447000C9447000C9447000C94470044
:100020000C9447000C9447000C9447000C94470034
:100030000C9447000C9447000C9447000C94470024
:100040000C9447000C9447000C9447000C94470014
:100050000C94470011241FBECFE5D8E0DEBFCDBF12
:1000600010E0A0E6B0E0E0E2F3E002C005900D92FF
:10007000A037B107D9F720E0A0E7B0E001C01D929A
:10008000A837B207E1F70E9465010C948E010C9429
:10009000000096ED980F923020F0982F9D7F9D32B2
:1000A00021F482E0FB01808308958D3321F483E005
:1000B000FB0180830895FB01682F8081813019F056
:1000C000823029F00895CA010E9484010895C9016F
:1000D0000E94840108954423B9F1413009F06BC0B6
:1000E000813089F028F08230C9F0833011F1089511
:1000F0002BB381E090E002C0880F991F6A95E2F768
:10010000822B8BBB089528B381E090E002C0880F5A
:10011000991F6A95E2F7822B88BB089525B381E089
:1001200090E002C0880F991F6A95E2F7822B85BB89
:10013000089522B381E090E002C0880F991F6A956C
:10014000E2F7822B82BB0895813091F028F0823053
:10015000D9F0833029F108952BB381E090E002C0FB
:10016000880F991F6A95E2F7809582238BBB0895CB
:1001700028B381E090E002C0880F991F6A95E2F7EA
:100180008095822388BB089525B381E090E002C06A
:10019000880F991F6A95E2F78095822385BB0895A1
:1001A00022B381E090E002C0880F991F6A95E2F7C0
:1001B0008095822382BB0895813089F028F08230B7
:1001C000C9F0833011F1089589B390E002C095958C
:1001D00087956A95E2F78170FA018083089586B366
:1001E00090E002C0959587956A95E2F78170FA01D3
:1001F0008083089583B390E002C0959587956A95B2
:10020000E2F78170FA018083089580B390E002C024
:10021000959587956A95E2F78170FA018083089534
:10022000BF92CF92DF92EF92FF920F931F93CF93E3
:10023000DF931F92CDB7DEB719820F2EF0E6CF2ED7
:10024000F0E0DF2EF02DB12C00E040E0602F83E0E5
:100250000E946B00760114E0AE014F5F5F4F612F8B
:1002600083E00E94DC008981811112C0F701B08017
:10027000AE014F5F5F4F612F83E00E94DC008981F8
:100280008823B1F38FE39CE90197F1F700C00000E8
:100290001F5F94E0E90EF11C1830F1F641E0602F89
:1002A00083E00E946B000F5FEFEFCE1ADE0A04308E
:1002B00061F68B2D0F90DF91CF911F910F91FF90E1
:1002C000EF90DF90CF90BF900895CF93DF931F9270
:1002D000CDB7DEB781E0898384E790E00E9480019A
:1002E00080E790E00E9480010E94100120E730E04A
:1002F00044E750E0BE016F5F7F4F0E944900F4CF9A
:100300002FEFFC0123830895FC012381223028F480
:100310002F5F2383E20FF11D60830895F894FFCFD0
:100320003738392F3435362A3132332D63303D2B6F
:00000001FF
